{
  "_format": "hh-sol-artifact-1",
  "contractName": "Obj",
  "sourceName": "contracts/Obj.sol",
  "abi": [
    {
      "anonymous": false,
      "inputs": [
        {
          "indexed": true,
          "internalType": "address",
          "name": "owner",
          "type": "address"
        },
        {
          "indexed": true,
          "internalType": "address",
          "name": "approved",
          "type": "address"
        },
        {
          "indexed": true,
          "internalType": "uint256",
          "name": "tokenId",
          "type": "uint256"
        }
      ],
      "name": "Approval",
      "type": "event"
    },
    {
      "anonymous": false,
      "inputs": [
        {
          "indexed": true,
          "internalType": "address",
          "name": "owner",
          "type": "address"
        },
        {
          "indexed": true,
          "internalType": "address",
          "name": "operator",
          "type": "address"
        },
        {
          "indexed": false,
          "internalType": "bool",
          "name": "approved",
          "type": "bool"
        }
      ],
      "name": "ApprovalForAll",
      "type": "event"
    },
    {
      "anonymous": false,
      "inputs": [
        {
          "indexed": true,
          "internalType": "address",
          "name": "from",
          "type": "address"
        },
        {
          "indexed": true,
          "internalType": "address",
          "name": "to",
          "type": "address"
        },
        {
          "indexed": true,
          "internalType": "uint256",
          "name": "tokenId",
          "type": "uint256"
        }
      ],
      "name": "Transfer",
      "type": "event"
    },
    {
      "inputs": [
        {
          "internalType": "uint256",
          "name": "_divNumHorizontal",
          "type": "uint256"
        },
        {
          "internalType": "uint256",
          "name": "_divNumVertical",
          "type": "uint256"
        },
        {
          "internalType": "string[]",
          "name": "_baseVVector",
          "type": "string[]"
        },
        {
          "internalType": "string[]",
          "name": "_baseVnVector",
          "type": "string[]"
        }
      ],
      "name": "addVectorData",
      "outputs": [],
      "stateMutability": "nonpayable",
      "type": "function"
    },
    {
      "inputs": [
        {
          "internalType": "address",
          "name": "to",
          "type": "address"
        },
        {
          "internalType": "uint256",
          "name": "tokenId",
          "type": "uint256"
        }
      ],
      "name": "approve",
      "outputs": [],
      "stateMutability": "nonpayable",
      "type": "function"
    },
    {
      "inputs": [
        {
          "internalType": "address",
          "name": "owner",
          "type": "address"
        }
      ],
      "name": "balanceOf",
      "outputs": [
        {
          "internalType": "uint256",
          "name": "",
          "type": "uint256"
        }
      ],
      "stateMutability": "view",
      "type": "function"
    },
    {
      "inputs": [
        {
          "internalType": "uint256",
          "name": "_divNumHorizontal",
          "type": "uint256"
        }
      ],
      "name": "createObjFile",
      "outputs": [
        {
          "internalType": "string",
          "name": "",
          "type": "string"
        }
      ],
      "stateMutability": "view",
      "type": "function"
    },
    {
      "inputs": [],
      "name": "getAllGhost",
      "outputs": [
        {
          "components": [
            {
              "internalType": "string",
              "name": "name",
              "type": "string"
            },
            {
              "internalType": "string",
              "name": "description",
              "type": "string"
            },
            {
              "internalType": "string",
              "name": "material",
              "type": "string"
            },
            {
              "internalType": "uint256",
              "name": "ghostId",
              "type": "uint256"
            },
            {
              "internalType": "uint256",
              "name": "vectorDataIndex",
              "type": "uint256"
            }
          ],
          "internalType": "struct Obj.Ghost[]",
          "name": "",
          "type": "tuple[]"
        }
      ],
      "stateMutability": "view",
      "type": "function"
    },
    {
      "inputs": [],
      "name": "getAllVector",
      "outputs": [
        {
          "components": [
            {
              "internalType": "uint256",
              "name": "divNumHorizontal",
              "type": "uint256"
            },
            {
              "internalType": "uint256",
              "name": "divNumVertical",
              "type": "uint256"
            },
            {
              "internalType": "string[]",
              "name": "baseVVector",
              "type": "string[]"
            },
            {
              "internalType": "string[]",
              "name": "baseVnVector",
              "type": "string[]"
            }
          ],
          "internalType": "struct Obj.VectorData[]",
          "name": "",
          "type": "tuple[]"
        }
      ],
      "stateMutability": "view",
      "type": "function"
    },
    {
      "inputs": [
        {
          "internalType": "uint256",
          "name": "tokenId",
          "type": "uint256"
        }
      ],
      "name": "getApproved",
      "outputs": [
        {
          "internalType": "address",
          "name": "",
          "type": "address"
        }
      ],
      "stateMutability": "view",
      "type": "function"
    },
    {
      "inputs": [
        {
          "internalType": "uint256",
          "name": "",
          "type": "uint256"
        }
      ],
      "name": "ghost",
      "outputs": [
        {
          "internalType": "string",
          "name": "name",
          "type": "string"
        },
        {
          "internalType": "string",
          "name": "description",
          "type": "string"
        },
        {
          "internalType": "string",
          "name": "material",
          "type": "string"
        },
        {
          "internalType": "uint256",
          "name": "ghostId",
          "type": "uint256"
        },
        {
          "internalType": "uint256",
          "name": "vectorDataIndex",
          "type": "uint256"
        }
      ],
      "stateMutability": "view",
      "type": "function"
    },
    {
      "inputs": [
        {
          "internalType": "string",
          "name": "_name",
          "type": "string"
        },
        {
          "internalType": "string",
          "name": "_description",
          "type": "string"
        },
        {
          "internalType": "uint256",
          "name": "divNumHorizontal",
          "type": "uint256"
        },
        {
          "internalType": "uint256",
          "name": "divNumVertical",
          "type": "uint256"
        },
        {
          "internalType": "string[]",
          "name": "baseVVector",
          "type": "string[]"
        },
        {
          "internalType": "string[]",
          "name": "baseVnVector",
          "type": "string[]"
        }
      ],
      "name": "ghostNftMint",
      "outputs": [],
      "stateMutability": "nonpayable",
      "type": "function"
    },
    {
      "inputs": [
        {
          "internalType": "address",
          "name": "owner",
          "type": "address"
        },
        {
          "internalType": "address",
          "name": "operator",
          "type": "address"
        }
      ],
      "name": "isApprovedForAll",
      "outputs": [
        {
          "internalType": "bool",
          "name": "",
          "type": "bool"
        }
      ],
      "stateMutability": "view",
      "type": "function"
    },
    {
      "inputs": [],
      "name": "name",
      "outputs": [
        {
          "internalType": "string",
          "name": "",
          "type": "string"
        }
      ],
      "stateMutability": "view",
      "type": "function"
    },
    {
      "inputs": [
        {
          "internalType": "uint256",
          "name": "tokenId",
          "type": "uint256"
        }
      ],
      "name": "ownerOf",
      "outputs": [
        {
          "internalType": "address",
          "name": "",
          "type": "address"
        }
      ],
      "stateMutability": "view",
      "type": "function"
    },
    {
      "inputs": [
        {
          "internalType": "uint256",
          "name": "ghostId",
          "type": "uint256"
        },
        {
          "internalType": "uint256",
          "name": "_divNumHorizontal",
          "type": "uint256"
        }
      ],
      "name": "readGhost",
      "outputs": [
        {
          "internalType": "string",
          "name": "",
          "type": "string"
        },
        {
          "internalType": "string",
          "name": "",
          "type": "string"
        },
        {
          "internalType": "string",
          "name": "",
          "type": "string"
        },
        {
          "internalType": "string",
          "name": "",
          "type": "string"
        },
        {
          "internalType": "uint256",
          "name": "",
          "type": "uint256"
        },
        {
          "internalType": "uint256",
          "name": "",
          "type": "uint256"
        }
      ],
      "stateMutability": "view",
      "type": "function"
    },
    {
      "inputs": [
        {
          "internalType": "address",
          "name": "from",
          "type": "address"
        },
        {
          "internalType": "address",
          "name": "to",
          "type": "address"
        },
        {
          "internalType": "uint256",
          "name": "tokenId",
          "type": "uint256"
        }
      ],
      "name": "safeTransferFrom",
      "outputs": [],
      "stateMutability": "nonpayable",
      "type": "function"
    },
    {
      "inputs": [
        {
          "internalType": "address",
          "name": "from",
          "type": "address"
        },
        {
          "internalType": "address",
          "name": "to",
          "type": "address"
        },
        {
          "internalType": "uint256",
          "name": "tokenId",
          "type": "uint256"
        },
        {
          "internalType": "bytes",
          "name": "data",
          "type": "bytes"
        }
      ],
      "name": "safeTransferFrom",
      "outputs": [],
      "stateMutability": "nonpayable",
      "type": "function"
    },
    {
      "inputs": [
        {
          "internalType": "address",
          "name": "operator",
          "type": "address"
        },
        {
          "internalType": "bool",
          "name": "approved",
          "type": "bool"
        }
      ],
      "name": "setApprovalForAll",
      "outputs": [],
      "stateMutability": "nonpayable",
      "type": "function"
    },
    {
      "inputs": [
        {
          "internalType": "bytes4",
          "name": "interfaceId",
          "type": "bytes4"
        }
      ],
      "name": "supportsInterface",
      "outputs": [
        {
          "internalType": "bool",
          "name": "",
          "type": "bool"
        }
      ],
      "stateMutability": "view",
      "type": "function"
    },
    {
      "inputs": [],
      "name": "symbol",
      "outputs": [
        {
          "internalType": "string",
          "name": "",
          "type": "string"
        }
      ],
      "stateMutability": "view",
      "type": "function"
    },
    {
      "inputs": [
        {
          "internalType": "uint256",
          "name": "tokenId",
          "type": "uint256"
        }
      ],
      "name": "tokenURI",
      "outputs": [
        {
          "internalType": "string",
          "name": "",
          "type": "string"
        }
      ],
      "stateMutability": "view",
      "type": "function"
    },
    {
      "inputs": [
        {
          "internalType": "address",
          "name": "from",
          "type": "address"
        },
        {
          "internalType": "address",
          "name": "to",
          "type": "address"
        },
        {
          "internalType": "uint256",
          "name": "tokenId",
          "type": "uint256"
        }
      ],
      "name": "transferFrom",
      "outputs": [],
      "stateMutability": "nonpayable",
      "type": "function"
    },
    {
      "inputs": [
        {
          "internalType": "uint256",
          "name": "",
          "type": "uint256"
        }
      ],
      "name": "vectorData",
      "outputs": [
        {
          "internalType": "uint256",
          "name": "divNumHorizontal",
          "type": "uint256"
        },
        {
          "internalType": "uint256",
          "name": "divNumVertical",
          "type": "uint256"
        }
      ],
      "stateMutability": "view",
      "type": "function"
    },
    {
      "inputs": [
        {
          "internalType": "string",
          "name": "_name",
          "type": "string"
        },
        {
          "internalType": "string",
          "name": "_description",
          "type": "string"
        },
        {
          "internalType": "string",
          "name": "_material",
          "type": "string"
        },
        {
          "internalType": "uint256",
          "name": "_divNumHorizontal",
          "type": "uint256"
        }
      ],
      "name": "writeGhost",
      "outputs": [],
      "stateMutability": "nonpayable",
      "type": "function"
    }
  ],
  "bytecode": "0x61020060405261014260808181529062003af560a039600890620000249082620001f6565b506001600b556001600c553480156200003c57600080fd5b506040518060400160405280600881526020016711da1bdcdd13919560c21b8152506040518060400160405280600581526020016411d213d4d560da1b81525081600090816200008d9190620001f6565b5060016200009c8282620001f6565b505050620000dc6040518060400160405280600f81526020016e10dc99585d194811da1bdcdd139195608a1b815250620000e260201b62001b7e1760201c565b62000312565b6200012d81604051602401620000f99190620002c2565b60408051601f198184030181529190526020810180516001600160e01b0390811663104c13eb60e21b179091526200013016565b50565b80516a636f6e736f6c652e6c6f67602083016000808483855afa5050505050565b634e487b7160e01b600052604160045260246000fd5b600181811c908216806200017c57607f821691505b6020821081036200019d57634e487b7160e01b600052602260045260246000fd5b50919050565b601f821115620001f157600081815260208120601f850160051c81016020861015620001cc5750805b601f850160051c820191505b81811015620001ed57828155600101620001d8565b5050505b505050565b81516001600160401b0381111562000212576200021262000151565b6200022a8162000223845462000167565b84620001a3565b602080601f831160018114620002625760008415620002495750858301515b600019600386901b1c1916600185901b178555620001ed565b600085815260208120601f198616915b82811015620002935788860151825594840194600190910190840162000272565b5085821015620002b25787850151600019600388901b60f8161c191681555b5050505050600190811b01905550565b600060208083528351808285015260005b81811015620002f157858101830151858201604001528201620002d3565b506000604082860101526040601f19601f8301168501019250505092915050565b6137d380620003226000396000f3fe608060405234801561001057600080fd5b50600436106101425760003560e01c80636352211e116100b8578063a22cb4651161007c578063a22cb465146102d3578063b88d4fde146102e6578063c87b56dd146102f9578063e985e9c51461030c578063ec5ea31f1461031f578063fd98a1181461034457600080fd5b80636352211e1461024b57806370a082311461025e57806372f4d3bb1461027f5780638c9111be146102a357806395d89b41146102cb57600080fd5b806317dcff551161010a57806317dcff55146101d957806319f5d6fe146101ec57806323b872dd146101ff57806342842e0e146102125780634bc43301146102255780635f65c50e1461023857600080fd5b806301ffc9a71461014757806306fdde031461016f578063081812fc14610184578063095ea7b3146101af57806315c22513146101c4575b600080fd5b61015a6101553660046127d0565b610359565b60405190151581526020015b60405180910390f35b6101776103ab565b604051610166919061283d565b610197610192366004612850565b61043d565b6040516001600160a01b039091168152602001610166565b6101c26101bd366004612885565b610464565b005b6101cc61057e565b6040516101669190612907565b6101c26101e7366004612a70565b6107a3565b6101c26101fa366004612b9f565b61087f565b6101c261020d366004612c16565b610988565b6101c2610220366004612c16565b6109b9565b610177610233366004612850565b6109d4565b6101c2610246366004612c52565b610f20565b610197610259366004612850565b611219565b61027161026c366004612d11565b611279565b604051908152602001610166565b61029261028d366004612850565b6112ff565b604051610166959493929190612d2c565b6102b66102b1366004612850565b6114dd565b60408051928352602083019190915201610166565b61017761150b565b6101c26102e1366004612d7a565b61151a565b6101c26102f4366004612db6565b611529565b610177610307366004612850565b611561565b61015a61031a366004612e26565b611671565b61033261032d366004612e59565b61169f565b60405161016696959493929190612e7b565b61034c61195e565b6040516101669190612ede565b60006001600160e01b031982166380ac58cd60e01b148061038a57506001600160e01b03198216635b5e139f60e01b145b806103a557506301ffc9a760e01b6001600160e01b03198316145b92915050565b6060600080546103ba90612f85565b80601f01602080910402602001604051908101604052809291908181526020018280546103e690612f85565b80156104335780601f1061040857610100808354040283529160200191610433565b820191906000526020600020905b81548152906001019060200180831161041657829003601f168201915b5050505050905090565b600061044882611bc4565b506000908152600460205260409020546001600160a01b031690565b600061046f82611219565b9050806001600160a01b0316836001600160a01b0316036104e15760405162461bcd60e51b815260206004820152602160248201527f4552433732313a20617070726f76616c20746f2063757272656e74206f776e656044820152603960f91b60648201526084015b60405180910390fd5b336001600160a01b03821614806104fd57506104fd8133611671565b61056f5760405162461bcd60e51b815260206004820152603d60248201527f4552433732313a20617070726f76652063616c6c6572206973206e6f7420746f60448201527f6b656e206f776e6572206f7220617070726f76656420666f7220616c6c00000060648201526084016104d8565b6105798383611c23565b505050565b60606009805480602002602001604051908101604052809291908181526020016000905b8282101561079a5783829060005260206000209060040201604051806080016040529081600082015481526020016001820154815260200160028201805480602002602001604051908101604052809291908181526020016000905b828210156106aa57838290600052602060002001805461061d90612f85565b80601f016020809104026020016040519081016040528092919081815260200182805461064990612f85565b80156106965780601f1061066b57610100808354040283529160200191610696565b820191906000526020600020905b81548152906001019060200180831161067957829003601f168201915b5050505050815260200190600101906105fe565b50505050815260200160038201805480602002602001604051908101604052809291908181526020016000905b828210156107835783829060005260206000200180546106f690612f85565b80601f016020809104026020016040519081016040528092919081815260200182805461072290612f85565b801561076f5780601f106107445761010080835404028352916020019161076f565b820191906000526020600020905b81548152906001019060200180831161075257829003601f168201915b5050505050815260200190600101906106d7565b5050505081525050815260200190600101906105a2565b50505050905090565b6000818152600d6020908152604080832054815160a081018352888152928301879052908201859052600b54606083015260808201819052600a8054600181018255935281519092829160059091027fc65a7bb8d6351c1cf70c95a316cc6a92839c986682d98bc35f958f4883f9d2a801908190610821908261300d565b5060208201516001820190610836908261300d565b506040820151600282019061084b908261300d565b5060608201516003820155608090910151600490910155600b8054906000610872836130e3565b9190505550505050505050565b604080516080810182528581526020808201868152928201858152606083018590526009805460018101825560009190915283517f6e1540171b6c0c960b71a7020d9f60077f6af931a8bbf590da0223dacf75c7af600490920291820190815594517f6e1540171b6c0c960b71a7020d9f60077f6af931a8bbf590da0223dacf75c7b08201559051805193948594909361093d937f6e1540171b6c0c960b71a7020d9f60077f6af931a8bbf590da0223dacf75c7b1019201906126fd565b50606082015180516109599160038401916020909101906126fd565b5050600c80546000888152600d6020526040812082905590925061097c836130e3565b91905055505050505050565b6109923382611c91565b6109ae5760405162461bcd60e51b81526004016104d8906130fc565b610579838383611cef565b61057983838360405180602001604052806000815250611529565b6000818152600d6020526040902054606090610a4f5760405162461bcd60e51b815260206004820152603460248201527f54686520737065636966696564206e756d626572206f66206469766973696f6e604482015273399034b9903737ba103932b3b4b9ba32b932b21760611b60648201526084016104d8565b6000828152600d6020526040812054610a6a90600190613149565b9050600060098281548110610a8157610a8161315c565b9060005260206000209060040201600001549050600060098381548110610aaa57610aaa61315c565b9060005260206000209060040201600101549050600060098481548110610ad357610ad361315c565b9060005260206000209060040201600201805480602002602001604051908101604052809291908181526020016000905b82821015610bb0578382906000526020600020018054610b2390612f85565b80601f0160208091040260200160405190810160405280929190818152602001828054610b4f90612f85565b8015610b9c5780601f10610b7157610100808354040283529160200191610b9c565b820191906000526020600020905b815481529060010190602001808311610b7f57829003601f168201915b505050505081526020019060010190610b04565b505050509050600060098581548110610bcb57610bcb61315c565b9060005260206000209060040201600301805480602002602001604051908101604052809291908181526020016000905b82821015610ca8578382906000526020600020018054610c1b90612f85565b80601f0160208091040260200160405190810160405280929190818152602001828054610c4790612f85565b8015610c945780601f10610c6957610100808354040283529160200191610c94565b820191906000526020600020905b815481529060010190602001808311610c7757829003601f168201915b505050505081526020019060010190610bfc565b505060408051808201825260018152603b60f91b6020820152905163e86d555560e01b815293945060009373__$f18288e6c6eb8c67252be30bbd085e830a$__935063e86d55559250610d02919088908890600401613172565b600060405180830381865af4158015610d1f573d6000803e3d6000fd5b505050506040513d6000823e601f3d908101601f19168201604052610d4791908101906131eb565b60408051808201825260028152613b3760f11b6020820152905163e86d555560e01b815291925060009173__$f18288e6c6eb8c67252be30bbd085e830a$__9163e86d555591610d9e919089908890600401613172565b600060405180830381865af4158015610dbb573d6000803e3d6000fd5b505050506040513d6000823e601f3d908101601f19168201604052610de391908101906131eb565b905081604051602001610df69190613262565b60408051601f198184030181529190529150600073__$f18288e6c6eb8c67252be30bbd085e830a$__63bf55f8e888610e2f89826132a7565b6040516001600160e01b031960e085901b16815260048101929092526024820152604401600060405180830381865af4158015610e70573d6000803e3d6000fd5b505050506040513d6000823e601f3d908101601f19168201604052610e9891908101906131eb565b9050828282604051602001610eaf939291906132be565b60408051601f19818403018152828201909152600c82526b664d6573682063726561746560a01b60208301529150610ee690611b7e565b610eef81611e60565b905080604051602001610f029190613391565b60408051601f198184030181529190529a9950505050505050505050565b6000610f2b60075490565b9050600060088054610f3c90612f85565b80601f0160208091040260200160405190810160405280929190818152602001828054610f6890612f85565b8015610fb55780601f10610f8a57610100808354040283529160200191610fb5565b820191906000526020600020905b815481529060010190602001808311610f9857829003601f168201915b50505050509050610fc581611b7e565b6060610fd087611fb3565b610fd987611fb3565b604051602001610fea9291906133cf565b604051602081830303815290604052905060005b8451811015611072578186828151811061101a5761101a61315c565b60200260200101518683815181106110345761103461315c565b602002602001015160405160200161104e93929190613415565b6040516020818303038152906040529150808061106a906130e3565b915050610ffe565b508181604051602001611086929190613464565b60408051601f1981840301815282820190915260158252740a2d2d2d2d2d205356472064617461202d2d2d2d2d60581b602083015292506110c690611b7e565b6110cf82611b7e565b6111056040518060400160405280601581526020017416969696969696969696969696969696969696968560591b815250611b7e565b60006111338a8a8560405160200161111f939291906134ab565b604051602081830303815290604052611e60565b9050600081604051602001611148919061356b565b60408051601f1981840301815282820190915260158252740a2d2d2d2d2d20546f6b656e20555249202d2d2d2d60581b6020830152915061118890611b7e565b61119181611b7e565b6111c76040518060400160405280601581526020017416969696969696969696969696969696969696968560591b815250611b7e565b6111d13386612046565b6111db8582612060565b6111fe6040518060600160405280602581526020016137396025913986336120f3565b61120c600780546001019055565b5050505050505050505050565b6000818152600260205260408120546001600160a01b0316806103a55760405162461bcd60e51b8152602060048201526018602482015277115490cdcc8c4e881a5b9d985b1a59081d1bdad95b88125160421b60448201526064016104d8565b60006001600160a01b0382166112e35760405162461bcd60e51b815260206004820152602960248201527f4552433732313a2061646472657373207a65726f206973206e6f7420612076616044820152683634b21037bbb732b960b91b60648201526084016104d8565b506001600160a01b031660009081526003602052604090205490565b600a818154811061130f57600080fd5b906000526020600020906005020160009150905080600001805461133290612f85565b80601f016020809104026020016040519081016040528092919081815260200182805461135e90612f85565b80156113ab5780601f10611380576101008083540402835291602001916113ab565b820191906000526020600020905b81548152906001019060200180831161138e57829003601f168201915b5050505050908060010180546113c090612f85565b80601f01602080910402602001604051908101604052809291908181526020018280546113ec90612f85565b80156114395780601f1061140e57610100808354040283529160200191611439565b820191906000526020600020905b81548152906001019060200180831161141c57829003601f168201915b50505050509080600201805461144e90612f85565b80601f016020809104026020016040519081016040528092919081815260200182805461147a90612f85565b80156114c75780601f1061149c576101008083540402835291602001916114c7565b820191906000526020600020905b8154815290600101906020018083116114aa57829003601f168201915b5050505050908060030154908060040154905085565b600981815481106114ed57600080fd5b60009182526020909120600490910201805460019091015490915082565b6060600180546103ba90612f85565b61152533838361213a565b5050565b6115333383611c91565b61154f5760405162461bcd60e51b81526004016104d8906130fc565b61155b84848484612208565b50505050565b606061156c82611bc4565b6000828152600660205260408120805461158590612f85565b80601f01602080910402602001604051908101604052809291908181526020018280546115b190612f85565b80156115fe5780601f106115d3576101008083540402835291602001916115fe565b820191906000526020600020905b8154815290600101906020018083116115e157829003601f168201915b50505050509050600061161c60408051602081019091526000815290565b9050805160000361162e575092915050565b8151156116605780826040516020016116489291906135b0565b60405160208183030381529060405292505050919050565b6116698461223b565b949350505050565b6001600160a01b03918216600090815260056020908152604080832093909416825291909152205460ff1690565b60608060608060008060006116b3886109d4565b905080600a6116c360018c613149565b815481106116d3576116d361315c565b60009182526020909120600590910201600a6116f060018d613149565b815481106117005761170061315c565b9060005260206000209060050201600101600a60018d6117209190613149565b815481106117305761173061315c565b9060005260206000209060050201600201600a60018e6117509190613149565b815481106117605761176061315c565b906000526020600020906005020160030154600a60018f6117819190613149565b815481106117915761179161315c565b9060005260206000209060050201600401548480546117af90612f85565b80601f01602080910402602001604051908101604052809291908181526020018280546117db90612f85565b80156118285780601f106117fd57610100808354040283529160200191611828565b820191906000526020600020905b81548152906001019060200180831161180b57829003601f168201915b5050505050945083805461183b90612f85565b80601f016020809104026020016040519081016040528092919081815260200182805461186790612f85565b80156118b45780601f10611889576101008083540402835291602001916118b4565b820191906000526020600020905b81548152906001019060200180831161189757829003601f168201915b505050505093508280546118c790612f85565b80601f01602080910402602001604051908101604052809291908181526020018280546118f390612f85565b80156119405780601f1061191557610100808354040283529160200191611940565b820191906000526020600020905b81548152906001019060200180831161192357829003601f168201915b50505050509250965096509650965096509650509295509295509295565b6060600a805480602002602001604051908101604052809291908181526020016000905b8282101561079a57838290600052602060002090600502016040518060a00160405290816000820180546119b590612f85565b80601f01602080910402602001604051908101604052809291908181526020018280546119e190612f85565b8015611a2e5780601f10611a0357610100808354040283529160200191611a2e565b820191906000526020600020905b815481529060010190602001808311611a1157829003601f168201915b50505050508152602001600182018054611a4790612f85565b80601f0160208091040260200160405190810160405280929190818152602001828054611a7390612f85565b8015611ac05780601f10611a9557610100808354040283529160200191611ac0565b820191906000526020600020905b815481529060010190602001808311611aa357829003601f168201915b50505050508152602001600282018054611ad990612f85565b80601f0160208091040260200160405190810160405280929190818152602001828054611b0590612f85565b8015611b525780601f10611b2757610100808354040283529160200191611b52565b820191906000526020600020905b815481529060010190602001808311611b3557829003601f168201915b505050505081526020016003820154815260200160048201548152505081526020019060010190611982565b611bc181604051602401611b92919061283d565b60408051601f198184030181529190526020810180516001600160e01b031663104c13eb60e21b1790526122af565b50565b6000818152600260205260409020546001600160a01b0316611bc15760405162461bcd60e51b8152602060048201526018602482015277115490cdcc8c4e881a5b9d985b1a59081d1bdad95b88125160421b60448201526064016104d8565b600081815260046020526040902080546001600160a01b0319166001600160a01b0384169081179091558190611c5882611219565b6001600160a01b03167f8c5be1e5ebec7d5bd14f71427d1e84f3dd0314c0f7b2291e5b200ac8c7c3b92560405160405180910390a45050565b600080611c9d83611219565b9050806001600160a01b0316846001600160a01b03161480611cc45750611cc48185611671565b806116695750836001600160a01b0316611cdd8461043d565b6001600160a01b031614949350505050565b826001600160a01b0316611d0282611219565b6001600160a01b031614611d285760405162461bcd60e51b81526004016104d8906135df565b6001600160a01b038216611d8a5760405162461bcd60e51b8152602060048201526024808201527f4552433732313a207472616e7366657220746f20746865207a65726f206164646044820152637265737360e01b60648201526084016104d8565b611d9783838360016122d0565b826001600160a01b0316611daa82611219565b6001600160a01b031614611dd05760405162461bcd60e51b81526004016104d8906135df565b600081815260046020908152604080832080546001600160a01b03199081169091556001600160a01b0387811680865260038552838620805460001901905590871680865283862080546001019055868652600290945282852080549092168417909155905184937fddf252ad1be2c89b69c2b068fc378daa952ba7f163c4a11628f55a4df523b3ef91a4505050565b60608151600003611e7f57505060408051602081019091526000815290565b600060405180606001604052806040815260200161375e6040913990506000600384516002611eae9190613624565b611eb89190613637565b611ec39060046132a7565b67ffffffffffffffff811115611edb57611edb6129a3565b6040519080825280601f01601f191660200182016040528015611f05576020820181803683370190505b509050600182016020820185865187015b80821015611f71576003820191508151603f8160121c168501518453600184019350603f81600c1c168501518453600184019350603f8160061c168501518453600184019350603f8116850151845350600183019250611f16565b5050600386510660018114611f8d5760028114611fa057611fa8565b603d6001830353603d6002830353611fa8565b603d60018303535b509195945050505050565b60606000611fc083612358565b600101905060008167ffffffffffffffff811115611fe057611fe06129a3565b6040519080825280601f01601f19166020018201604052801561200a576020820181803683370190505b5090508181016020015b600019016f181899199a1a9b1b9c1cb0b131b232b360811b600a86061a8153600a850494508461201457509392505050565b611525828260405180602001604052806000815250612430565b6000828152600260205260409020546001600160a01b03166120db5760405162461bcd60e51b815260206004820152602e60248201527f45524337323155524953746f726167653a2055524920736574206f66206e6f6e60448201526d32bc34b9ba32b73a103a37b5b2b760911b60648201526084016104d8565b6000828152600660205260409020610579828261300d565b61057983838360405160240161210b93929190613659565b60408051601f198184030181529190526020810180516001600160e01b031663038fd88960e31b1790526122af565b816001600160a01b0316836001600160a01b03160361219b5760405162461bcd60e51b815260206004820152601960248201527f4552433732313a20617070726f766520746f2063616c6c65720000000000000060448201526064016104d8565b6001600160a01b03838116600081815260056020908152604080832094871680845294825291829020805460ff191686151590811790915591519182527f17307eab39ab6107e8899845ad3d59bd9653f200f220920489ca2b5937696c31910160405180910390a3505050565b612213848484611cef565b61221f84848484612463565b61155b5760405162461bcd60e51b81526004016104d89061368c565b606061224682611bc4565b600061225d60408051602081019091526000815290565b9050600081511161227d57604051806020016040528060008152506122a8565b8061228784611fb3565b6040516020016122989291906135b0565b6040516020818303038152906040525b9392505050565b80516a636f6e736f6c652e6c6f67602083016000808483855afa5050505050565b600181111561155b576001600160a01b03841615612316576001600160a01b03841660009081526003602052604081208054839290612310908490613149565b90915550505b6001600160a01b0383161561155b576001600160a01b0383166000908152600360205260408120805483929061234d908490613624565b909155505050505050565b60008072184f03e93ff9f4daa797ed6e38ed64bf6a1f0160401b83106123975772184f03e93ff9f4daa797ed6e38ed64bf6a1f0160401b830492506040015b6d04ee2d6d415b85acef810000000083106123c3576d04ee2d6d415b85acef8100000000830492506020015b662386f26fc1000083106123e157662386f26fc10000830492506010015b6305f5e10083106123f9576305f5e100830492506008015b612710831061240d57612710830492506004015b6064831061241f576064830492506002015b600a83106103a55760010192915050565b61243a8383612564565b6124476000848484612463565b6105795760405162461bcd60e51b81526004016104d89061368c565b60006001600160a01b0384163b1561255957604051630a85bd0160e11b81526001600160a01b0385169063150b7a02906124a79033908990889088906004016136de565b6020604051808303816000875af19250505080156124e2575060408051601f3d908101601f191682019092526124df9181019061371b565b60015b61253f573d808015612510576040519150601f19603f3d011682016040523d82523d6000602084013e612515565b606091505b5080516000036125375760405162461bcd60e51b81526004016104d89061368c565b805181602001fd5b6001600160e01b031916630a85bd0160e11b149050611669565b506001949350505050565b6001600160a01b0382166125ba5760405162461bcd60e51b815260206004820181905260248201527f4552433732313a206d696e7420746f20746865207a65726f206164647265737360448201526064016104d8565b6000818152600260205260409020546001600160a01b03161561261f5760405162461bcd60e51b815260206004820152601c60248201527f4552433732313a20746f6b656e20616c7265616479206d696e7465640000000060448201526064016104d8565b61262d6000838360016122d0565b6000818152600260205260409020546001600160a01b0316156126925760405162461bcd60e51b815260206004820152601c60248201527f4552433732313a20746f6b656e20616c7265616479206d696e7465640000000060448201526064016104d8565b6001600160a01b038216600081815260036020908152604080832080546001019055848352600290915280822080546001600160a01b0319168417905551839291907fddf252ad1be2c89b69c2b068fc378daa952ba7f163c4a11628f55a4df523b3ef908290a45050565b828054828255906000526020600020908101928215612743579160200282015b828111156127435782518290612733908261300d565b509160200191906001019061271d565b5061274f929150612753565b5090565b8082111561274f5760006127678282612770565b50600101612753565b50805461277c90612f85565b6000825580601f1061278c575050565b601f016020900490600052602060002090810190611bc191905b8082111561274f57600081556001016127a6565b6001600160e01b031981168114611bc157600080fd5b6000602082840312156127e257600080fd5b81356122a8816127ba565b60005b838110156128085781810151838201526020016127f0565b50506000910152565b600081518084526128298160208601602086016127ed565b601f01601f19169290920160200192915050565b6020815260006122a86020830184612811565b60006020828403121561286257600080fd5b5035919050565b80356001600160a01b038116811461288057600080fd5b919050565b6000806040838503121561289857600080fd5b6128a183612869565b946020939093013593505050565b600082825180855260208086019550808260051b84010181860160005b848110156128fa57601f198684030189526128e8838351612811565b988401989250908301906001016128cc565b5090979650505050505050565b60006020808301818452808551808352604092508286019150828160051b87010184880160005b8381101561299557603f1989840301855281516080815185528882015189860152878201518189870152612964828701826128af565b9150506060808301519250858203818701525061298181836128af565b96890196945050509086019060010161292e565b509098975050505050505050565b634e487b7160e01b600052604160045260246000fd5b604051601f8201601f1916810167ffffffffffffffff811182821017156129e2576129e26129a3565b604052919050565b600067ffffffffffffffff821115612a0457612a046129a3565b50601f01601f191660200190565b6000612a25612a20846129ea565b6129b9565b9050828152838383011115612a3957600080fd5b828260208301376000602084830101529392505050565b600082601f830112612a6157600080fd5b6122a883833560208501612a12565b60008060008060808587031215612a8657600080fd5b843567ffffffffffffffff80821115612a9e57600080fd5b612aaa88838901612a50565b95506020870135915080821115612ac057600080fd5b612acc88838901612a50565b94506040870135915080821115612ae257600080fd5b50612aef87828801612a50565b949793965093946060013593505050565b600082601f830112612b1157600080fd5b8135602067ffffffffffffffff80831115612b2e57612b2e6129a3565b8260051b612b3d8382016129b9565b9384528581018301938381019088861115612b5757600080fd5b84880192505b85831015612b9357823584811115612b755760008081fd5b612b838a87838c0101612a50565b8352509184019190840190612b5d565b98975050505050505050565b60008060008060808587031215612bb557600080fd5b8435935060208501359250604085013567ffffffffffffffff80821115612bdb57600080fd5b612be788838901612b00565b93506060870135915080821115612bfd57600080fd5b50612c0a87828801612b00565b91505092959194509250565b600080600060608486031215612c2b57600080fd5b612c3484612869565b9250612c4260208501612869565b9150604084013590509250925092565b60008060008060008060c08789031215612c6b57600080fd5b863567ffffffffffffffff80821115612c8357600080fd5b612c8f8a838b01612a50565b97506020890135915080821115612ca557600080fd5b612cb18a838b01612a50565b965060408901359550606089013594506080890135915080821115612cd557600080fd5b612ce18a838b01612b00565b935060a0890135915080821115612cf757600080fd5b50612d0489828a01612b00565b9150509295509295509295565b600060208284031215612d2357600080fd5b6122a882612869565b60a081526000612d3f60a0830188612811565b8281036020840152612d518188612811565b90508281036040840152612d658187612811565b60608401959095525050608001529392505050565b60008060408385031215612d8d57600080fd5b612d9683612869565b915060208301358015158114612dab57600080fd5b809150509250929050565b60008060008060808587031215612dcc57600080fd5b612dd585612869565b9350612de360208601612869565b925060408501359150606085013567ffffffffffffffff811115612e0657600080fd5b8501601f81018713612e1757600080fd5b612c0a87823560208401612a12565b60008060408385031215612e3957600080fd5b612e4283612869565b9150612e5060208401612869565b90509250929050565b60008060408385031215612e6c57600080fd5b50508035926020909101359150565b60c081526000612e8e60c0830189612811565b8281036020840152612ea08189612811565b90508281036040840152612eb48188612811565b90508281036060840152612ec88187612811565b6080840195909552505060a00152949350505050565b60006020808301818452808551808352604092508286019150828160051b87010184880160005b8381101561299557603f19898403018552815160a08151818652612f2b82870182612811565b915050888201518582038a870152612f438282612811565b9150508782015185820389870152612f5b8282612811565b60608481015190880152608093840151939096019290925250509386019390860190600101612f05565b600181811c90821680612f9957607f821691505b602082108103612fb957634e487b7160e01b600052602260045260246000fd5b50919050565b601f82111561057957600081815260208120601f850160051c81016020861015612fe65750805b601f850160051c820191505b8181101561300557828155600101612ff2565b505050505050565b815167ffffffffffffffff811115613027576130276129a3565b61303b816130358454612f85565b84612fbf565b602080601f83116001811461307057600084156130585750858301515b600019600386901b1c1916600185901b178555613005565b600085815260208120601f198616915b8281101561309f57888601518255948401946001909101908401613080565b50858210156130bd5787850151600019600388901b60f8161c191681555b5050505050600190811b01905550565b634e487b7160e01b600052601160045260246000fd5b6000600182016130f5576130f56130cd565b5060010190565b6020808252602d908201527f4552433732313a2063616c6c6572206973206e6f7420746f6b656e206f776e6560408201526c1c881bdc88185c1c1c9bdd9959609a1b606082015260800190565b818103818111156103a5576103a56130cd565b634e487b7160e01b600052603260045260246000fd5b6060815260006131856060830186612811565b6020858185015283820360408501528185518084528284019150828160051b85010183880160005b838110156131db57601f198784030185526131c9838351612811565b948601949250908501906001016131ad565b50909a9950505050505050505050565b6000602082840312156131fd57600080fd5b815167ffffffffffffffff81111561321457600080fd5b8201601f8101841361322557600080fd5b8051613233612a20826129ea565b81815285602083850101111561324857600080fd5b6132598260208301602086016127ed565b95945050505050565b683b101698101890180560b91b815281516000906132878160098501602087016127ed565b683b101810169890180560b91b6009939091019283015250601201919050565b80820281158282048414176103a5576103a56130cd565b7f2320426c656e6465722076332e322e32204f424a2046696c653a2027270a232081527f7777772e626c656e6465722e6f72670a6d746c6c6962207370686572655f31326020820152742f9b1736ba3605379073c841aff3c841971818188560591b60408201526000845161333a8160558501602089016127ed565b8451908301906133518160558401602089016127ed565b713ab9b2b6ba36102737b73285399037b3330560711b6055929091019182015283516133848160678401602088016127ed565b0160670195945050505050565b7519185d184e9b5bd9195b0bdbd89a8ed8985cd94d8d0b60521b8152600082516133c28160168501602087016127ed565b9190910160160192915050565b600083516133e18184602088016127ed565b600560f91b90830181815284519091906134028160018501602089016127ed565b6001920191820152600201949350505050565b600084516134278184602089016127ed565b84519083019061343b8183602089016127ed565b845191019061344e8183602088016127ed565b600560f91b910190815260010195945050505050565b600083516134768184602088016127ed565b83519083019061348a8183602088016127ed565b6c1e17ba32bc3a1f1e17b9bb339f60991b9101908152600d01949350505050565b693d913730b6b2911d101160b11b815283516000906134d181600a8501602089016127ed565b70111610113232b9b1b934b83a34b7b7111d60791b600a91840191820152845161350281601b8401602089016127ed565b7f2c2022696d616765223a2022646174613a696d6167652f7376672b786d6c3b62601b929091019182015265185cd94d8d0b60d21b603b820152835161354f8160418401602088016127ed565b61227d60f01b6041929091019182015260430195945050505050565b7f646174613a6170706c69636174696f6e2f6a736f6e3b6261736536342c0000008152600082516135a381601d8501602087016127ed565b91909101601d0192915050565b600083516135c28184602088016127ed565b8351908301906135d68183602088016127ed565b01949350505050565b60208082526025908201527f4552433732313a207472616e736665722066726f6d20696e636f72726563742060408201526437bbb732b960d91b606082015260800190565b808201808211156103a5576103a56130cd565b60008261365457634e487b7160e01b600052601260045260246000fd5b500490565b60608152600061366c6060830186612811565b6020830194909452506001600160a01b0391909116604090910152919050565b60208082526032908201527f4552433732313a207472616e7366657220746f206e6f6e20455243373231526560408201527131b2b4bb32b91034b6b83632b6b2b73a32b960711b606082015260800190565b6001600160a01b038581168252841660208201526040810183905260806060820181905260009061371190830184612811565b9695505050505050565b60006020828403121561372d57600080fd5b81516122a8816127ba56fe416e204e465420772f20494420257320686173206265656e206d696e74656420746f2025734142434445464748494a4b4c4d4e4f505152535455565758595a6162636465666768696a6b6c6d6e6f707172737475767778797a303132333435363738392b2fa2646970667358221220fff77d1050a9d97b5cbbfd376eefd50e44d3dbc7c38c51cf582a15051f683d9f64736f6c634300081100333c73766720786d6c6e733d27687474703a2f2f7777772e77332e6f72672f323030302f73766727207072657365727665417370656374526174696f3d27784d696e594d696e206d656574272076696577426f783d273020302033353020333530273e3c7374796c653e2e62617365207b2066696c6c3a20234638463546353b20666f6e742d66616d696c793a202747656f726769612c207365726966273b20666f6e742d73697a653a20323470783b207d3c2f7374796c653e3c726563742077696474683d273130302527206865696768743d2731303025272066696c6c3d272333464330413127202f3e3c7465787420783d273530252720793d273530252720636c6173734e616d653d27626173652720646f6d696e616e742d626173656c696e653d276d6964646c652720746578742d616e63686f723d276d6964646c65273e",
  "linkReferences": {
    "contracts/library/Vector.sol": {
      "Vector": [
        {
          "length": 20,
          "start": 4087
        },
        {
          "length": 20,
          "start": 4245
        },
        {
          "length": 20,
          "start": 4398
        }
      ]
    }
  },
  "deployedLinkReferences": {
    "contracts/library/Vector.sol": {
      "Vector": [
        {
          "length": 20,
          "start": 3285
        },
        {
          "length": 20,
          "start": 3443
        },
        {
          "length": 20,
          "start": 3596
        }
      ]
    }
  }
}