{
  "_format": "hh-sol-artifact-1",
  "contractName": "Obj",
  "sourceName": "contracts/Obj.sol",
  "abi": [
    {
      "anonymous": false,
      "inputs": [
        {
          "indexed": true,
          "internalType": "address",
          "name": "owner",
          "type": "address"
        },
        {
          "indexed": true,
          "internalType": "address",
          "name": "approved",
          "type": "address"
        },
        {
          "indexed": true,
          "internalType": "uint256",
          "name": "tokenId",
          "type": "uint256"
        }
      ],
      "name": "Approval",
      "type": "event"
    },
    {
      "anonymous": false,
      "inputs": [
        {
          "indexed": true,
          "internalType": "address",
          "name": "owner",
          "type": "address"
        },
        {
          "indexed": true,
          "internalType": "address",
          "name": "operator",
          "type": "address"
        },
        {
          "indexed": false,
          "internalType": "bool",
          "name": "approved",
          "type": "bool"
        }
      ],
      "name": "ApprovalForAll",
      "type": "event"
    },
    {
      "anonymous": false,
      "inputs": [
        {
          "indexed": true,
          "internalType": "address",
          "name": "from",
          "type": "address"
        },
        {
          "indexed": true,
          "internalType": "address",
          "name": "to",
          "type": "address"
        },
        {
          "indexed": true,
          "internalType": "uint256",
          "name": "tokenId",
          "type": "uint256"
        }
      ],
      "name": "Transfer",
      "type": "event"
    },
    {
      "inputs": [
        {
          "internalType": "uint256",
          "name": "_divNumHorizontal",
          "type": "uint256"
        },
        {
          "internalType": "uint256",
          "name": "_divNumVertical",
          "type": "uint256"
        },
        {
          "internalType": "string[]",
          "name": "_baseVVector",
          "type": "string[]"
        },
        {
          "internalType": "string[]",
          "name": "_baseVnVector",
          "type": "string[]"
        }
      ],
      "name": "addVectorData",
      "outputs": [],
      "stateMutability": "nonpayable",
      "type": "function"
    },
    {
      "inputs": [
        {
          "internalType": "address",
          "name": "to",
          "type": "address"
        },
        {
          "internalType": "uint256",
          "name": "tokenId",
          "type": "uint256"
        }
      ],
      "name": "approve",
      "outputs": [],
      "stateMutability": "nonpayable",
      "type": "function"
    },
    {
      "inputs": [
        {
          "internalType": "address",
          "name": "owner",
          "type": "address"
        }
      ],
      "name": "balanceOf",
      "outputs": [
        {
          "internalType": "uint256",
          "name": "",
          "type": "uint256"
        }
      ],
      "stateMutability": "view",
      "type": "function"
    },
    {
      "inputs": [
        {
          "internalType": "uint256",
          "name": "_divNumHorizontal",
          "type": "uint256"
        }
      ],
      "name": "createObjFile",
      "outputs": [
        {
          "internalType": "string",
          "name": "",
          "type": "string"
        }
      ],
      "stateMutability": "view",
      "type": "function"
    },
    {
      "inputs": [
        {
          "internalType": "uint256",
          "name": "",
          "type": "uint256"
        }
      ],
      "name": "divNumHorizontalToObjDataId",
      "outputs": [
        {
          "internalType": "uint256",
          "name": "",
          "type": "uint256"
        }
      ],
      "stateMutability": "view",
      "type": "function"
    },
    {
      "inputs": [],
      "name": "getAllGhost",
      "outputs": [
        {
          "components": [
            {
              "internalType": "string",
              "name": "name",
              "type": "string"
            },
            {
              "internalType": "string",
              "name": "description",
              "type": "string"
            },
            {
              "internalType": "string",
              "name": "material",
              "type": "string"
            },
            {
              "internalType": "uint256",
              "name": "ghostId",
              "type": "uint256"
            },
            {
              "internalType": "uint256",
              "name": "vectorDataIndex",
              "type": "uint256"
            }
          ],
          "internalType": "struct Obj.Ghost[]",
          "name": "",
          "type": "tuple[]"
        }
      ],
      "stateMutability": "view",
      "type": "function"
    },
    {
      "inputs": [],
      "name": "getAllObjData",
      "outputs": [
        {
          "internalType": "string[]",
          "name": "",
          "type": "string[]"
        }
      ],
      "stateMutability": "view",
      "type": "function"
    },
    {
      "inputs": [],
      "name": "getAllVector",
      "outputs": [
        {
          "components": [
            {
              "internalType": "uint256",
              "name": "divNumHorizontal",
              "type": "uint256"
            },
            {
              "internalType": "uint256",
              "name": "divNumVertical",
              "type": "uint256"
            },
            {
              "internalType": "string[]",
              "name": "baseVVector",
              "type": "string[]"
            },
            {
              "internalType": "string[]",
              "name": "baseVnVector",
              "type": "string[]"
            }
          ],
          "internalType": "struct Obj.VectorData[]",
          "name": "",
          "type": "tuple[]"
        }
      ],
      "stateMutability": "view",
      "type": "function"
    },
    {
      "inputs": [
        {
          "internalType": "uint256",
          "name": "tokenId",
          "type": "uint256"
        }
      ],
      "name": "getApproved",
      "outputs": [
        {
          "internalType": "address",
          "name": "",
          "type": "address"
        }
      ],
      "stateMutability": "view",
      "type": "function"
    },
    {
      "inputs": [
        {
          "internalType": "uint256",
          "name": "_divNumHorizontal",
          "type": "uint256"
        }
      ],
      "name": "getDivNumHorizontalToObjDataId",
      "outputs": [
        {
          "internalType": "uint256",
          "name": "",
          "type": "uint256"
        }
      ],
      "stateMutability": "view",
      "type": "function"
    },
    {
      "inputs": [
        {
          "internalType": "uint256",
          "name": "vectorId",
          "type": "uint256"
        }
      ],
      "name": "getVector",
      "outputs": [
        {
          "internalType": "uint256",
          "name": "",
          "type": "uint256"
        },
        {
          "internalType": "uint256",
          "name": "",
          "type": "uint256"
        }
      ],
      "stateMutability": "view",
      "type": "function"
    },
    {
      "inputs": [
        {
          "internalType": "uint256",
          "name": "",
          "type": "uint256"
        }
      ],
      "name": "ghost",
      "outputs": [
        {
          "internalType": "string",
          "name": "name",
          "type": "string"
        },
        {
          "internalType": "string",
          "name": "description",
          "type": "string"
        },
        {
          "internalType": "string",
          "name": "material",
          "type": "string"
        },
        {
          "internalType": "uint256",
          "name": "ghostId",
          "type": "uint256"
        },
        {
          "internalType": "uint256",
          "name": "vectorDataIndex",
          "type": "uint256"
        }
      ],
      "stateMutability": "view",
      "type": "function"
    },
    {
      "inputs": [
        {
          "internalType": "string",
          "name": "_objData",
          "type": "string"
        },
        {
          "internalType": "string",
          "name": "_name",
          "type": "string"
        },
        {
          "internalType": "string",
          "name": "_description",
          "type": "string"
        },
        {
          "internalType": "uint256",
          "name": "_divNumHorizontal",
          "type": "uint256"
        },
        {
          "internalType": "uint256",
          "name": "_divNumVertical",
          "type": "uint256"
        }
      ],
      "name": "ghostNftMint",
      "outputs": [],
      "stateMutability": "nonpayable",
      "type": "function"
    },
    {
      "inputs": [
        {
          "internalType": "address",
          "name": "owner",
          "type": "address"
        },
        {
          "internalType": "address",
          "name": "operator",
          "type": "address"
        }
      ],
      "name": "isApprovedForAll",
      "outputs": [
        {
          "internalType": "bool",
          "name": "",
          "type": "bool"
        }
      ],
      "stateMutability": "view",
      "type": "function"
    },
    {
      "inputs": [],
      "name": "name",
      "outputs": [
        {
          "internalType": "string",
          "name": "",
          "type": "string"
        }
      ],
      "stateMutability": "view",
      "type": "function"
    },
    {
      "inputs": [
        {
          "internalType": "uint256",
          "name": "tokenId",
          "type": "uint256"
        }
      ],
      "name": "ownerOf",
      "outputs": [
        {
          "internalType": "address",
          "name": "",
          "type": "address"
        }
      ],
      "stateMutability": "view",
      "type": "function"
    },
    {
      "inputs": [
        {
          "internalType": "uint256",
          "name": "ghostId",
          "type": "uint256"
        },
        {
          "internalType": "uint256",
          "name": "_divNumHorizontal",
          "type": "uint256"
        }
      ],
      "name": "readGhost",
      "outputs": [
        {
          "internalType": "string",
          "name": "",
          "type": "string"
        },
        {
          "internalType": "string",
          "name": "",
          "type": "string"
        },
        {
          "internalType": "string",
          "name": "",
          "type": "string"
        },
        {
          "internalType": "string",
          "name": "",
          "type": "string"
        },
        {
          "internalType": "uint256",
          "name": "",
          "type": "uint256"
        },
        {
          "internalType": "uint256",
          "name": "",
          "type": "uint256"
        }
      ],
      "stateMutability": "view",
      "type": "function"
    },
    {
      "inputs": [
        {
          "internalType": "address",
          "name": "from",
          "type": "address"
        },
        {
          "internalType": "address",
          "name": "to",
          "type": "address"
        },
        {
          "internalType": "uint256",
          "name": "tokenId",
          "type": "uint256"
        }
      ],
      "name": "safeTransferFrom",
      "outputs": [],
      "stateMutability": "nonpayable",
      "type": "function"
    },
    {
      "inputs": [
        {
          "internalType": "address",
          "name": "from",
          "type": "address"
        },
        {
          "internalType": "address",
          "name": "to",
          "type": "address"
        },
        {
          "internalType": "uint256",
          "name": "tokenId",
          "type": "uint256"
        },
        {
          "internalType": "bytes",
          "name": "data",
          "type": "bytes"
        }
      ],
      "name": "safeTransferFrom",
      "outputs": [],
      "stateMutability": "nonpayable",
      "type": "function"
    },
    {
      "inputs": [
        {
          "internalType": "address",
          "name": "operator",
          "type": "address"
        },
        {
          "internalType": "bool",
          "name": "approved",
          "type": "bool"
        }
      ],
      "name": "setApprovalForAll",
      "outputs": [],
      "stateMutability": "nonpayable",
      "type": "function"
    },
    {
      "inputs": [
        {
          "internalType": "bytes4",
          "name": "interfaceId",
          "type": "bytes4"
        }
      ],
      "name": "supportsInterface",
      "outputs": [
        {
          "internalType": "bool",
          "name": "",
          "type": "bool"
        }
      ],
      "stateMutability": "view",
      "type": "function"
    },
    {
      "inputs": [],
      "name": "symbol",
      "outputs": [
        {
          "internalType": "string",
          "name": "",
          "type": "string"
        }
      ],
      "stateMutability": "view",
      "type": "function"
    },
    {
      "inputs": [
        {
          "internalType": "uint256",
          "name": "tokenId",
          "type": "uint256"
        }
      ],
      "name": "tokenURI",
      "outputs": [
        {
          "internalType": "string",
          "name": "",
          "type": "string"
        }
      ],
      "stateMutability": "view",
      "type": "function"
    },
    {
      "inputs": [
        {
          "internalType": "address",
          "name": "from",
          "type": "address"
        },
        {
          "internalType": "address",
          "name": "to",
          "type": "address"
        },
        {
          "internalType": "uint256",
          "name": "tokenId",
          "type": "uint256"
        }
      ],
      "name": "transferFrom",
      "outputs": [],
      "stateMutability": "nonpayable",
      "type": "function"
    },
    {
      "inputs": [
        {
          "internalType": "uint256",
          "name": "",
          "type": "uint256"
        }
      ],
      "name": "vectorData",
      "outputs": [
        {
          "internalType": "uint256",
          "name": "divNumHorizontal",
          "type": "uint256"
        },
        {
          "internalType": "uint256",
          "name": "divNumVertical",
          "type": "uint256"
        }
      ],
      "stateMutability": "view",
      "type": "function"
    },
    {
      "inputs": [
        {
          "internalType": "string",
          "name": "_name",
          "type": "string"
        },
        {
          "internalType": "string",
          "name": "_description",
          "type": "string"
        },
        {
          "internalType": "string",
          "name": "_material",
          "type": "string"
        },
        {
          "internalType": "uint256",
          "name": "_divNumHorizontal",
          "type": "uint256"
        }
      ],
      "name": "writeGhost",
      "outputs": [],
      "stateMutability": "nonpayable",
      "type": "function"
    }
  ],
  "bytecode": "0x60806040526001600b556001600c553480156200001b57600080fd5b506040518060400160405280600981526020016811da1bdcdd0813919560ba1b8152506040518060400160405280600581526020016411d213d4d560da1b81525081600090816200006d9190620001d6565b5060016200007c8282620001d6565b505050620000bc6040518060400160405280600f81526020016e10dc99585d194811da1bdcdd139195608a1b815250620000c260201b62001de71760201c565b620002f2565b6200010d81604051602401620000d99190620002a2565b60408051601f198184030181529190526020810180516001600160e01b0390811663104c13eb60e21b179091526200011016565b50565b80516a636f6e736f6c652e6c6f67602083016000808483855afa5050505050565b634e487b7160e01b600052604160045260246000fd5b600181811c908216806200015c57607f821691505b6020821081036200017d57634e487b7160e01b600052602260045260246000fd5b50919050565b601f821115620001d157600081815260208120601f850160051c81016020861015620001ac5750805b601f850160051c820191505b81811015620001cd57828155600101620001b8565b5050505b505050565b81516001600160401b03811115620001f257620001f262000131565b6200020a8162000203845462000147565b8462000183565b602080601f831160018114620002425760008415620002295750858301515b600019600386901b1c1916600185901b178555620001cd565b600085815260208120601f198616915b82811015620002735788860151825594840194600190910190840162000252565b5085821015620002925787850151600019600388901b60f8161c191681555b5050505050600190811b01905550565b600060208083528351808285015260005b81811015620002d157858101830151858201604001528201620002b3565b506000604082860101526040601f19601f8301168501019250505092915050565b613c5380620003026000396000f3fe608060405234801561001057600080fd5b506004361061018e5760003560e01c80636352211e116100de578063a22cb46511610097578063e985e9c511610071578063e985e9c5146103a0578063ec5ea31f146103b3578063f56e1bb2146103d8578063fd98a118146103f857600080fd5b8063a22cb46514610367578063b88d4fde1461037a578063c87b56dd1461038d57600080fd5b80636352211e146102d457806370a08231146102e757806372f4d3bb146103085780637f84973d1461032c5780638c9111be1461034c57806395d89b411461035f57600080fd5b806317dcff551161014b57806323b872dd1161012557806323b872dd1461028657806342842e0e146102995780634bc43301146102ac57806352d26238146102bf57600080fd5b806317dcff551461023857806319f5d6fe1461024b57806320804f351461025e57600080fd5b806301ffc9a71461019357806306fdde03146101bb578063081812fc146101d0578063095ea7b3146101fb57806312694fc01461021057806315c2251314610223575b600080fd5b6101a66101a1366004612a7e565b61040d565b60405190151581526020015b60405180910390f35b6101c361045f565b6040516101b29190612aeb565b6101e36101de366004612afe565b6104f1565b6040516001600160a01b0390911681526020016101b2565b61020e610209366004612b33565b610518565b005b61020e61021e366004612c2a565b610632565b61022b61095e565b6040516101b29190612d1c565b61020e610246366004612db8565b610b83565b61020e610259366004612ee7565b610c5d565b61027161026c366004612afe565b610db1565b604080519283526020830191909152016101b2565b61020e610294366004612f5e565b610e1a565b61020e6102a7366004612f5e565b610e4b565b6101c36102ba366004612afe565b610e66565b6102c76113b2565b6040516101b29190612f9a565b6101e36102e2366004612afe565b611482565b6102fa6102f5366004612ffc565b6114e2565b6040519081526020016101b2565b61031b610316366004612afe565b611568565b6040516101b2959493929190613017565b6102fa61033a366004612afe565b6000908152600d602052604090205490565b61027161035a366004612afe565b611746565b6101c3611774565b61020e610375366004613065565b611783565b61020e6103883660046130a1565b611792565b6101c361039b366004612afe565b6117ca565b6101a66103ae366004613111565b6118da565b6103c66103c1366004613144565b611908565b6040516101b296959493929190613166565b6102fa6103e6366004612afe565b600d6020526000908152604090205481565b610400611bc7565b6040516101b291906131c9565b60006001600160e01b031982166380ac58cd60e01b148061043e57506001600160e01b03198216635b5e139f60e01b145b8061045957506301ffc9a760e01b6001600160e01b03198316145b92915050565b60606000805461046e90613270565b80601f016020809104026020016040519081016040528092919081815260200182805461049a90613270565b80156104e75780601f106104bc576101008083540402835291602001916104e7565b820191906000526020600020905b8154815290600101906020018083116104ca57829003601f168201915b5050505050905090565b60006104fc82611e2d565b506000908152600460205260409020546001600160a01b031690565b600061052382611482565b9050806001600160a01b0316836001600160a01b0316036105955760405162461bcd60e51b815260206004820152602160248201527f4552433732313a20617070726f76616c20746f2063757272656e74206f776e656044820152603960f91b60648201526084015b60405180910390fd5b336001600160a01b03821614806105b157506105b181336118da565b6106235760405162461bcd60e51b815260206004820152603d60248201527f4552433732313a20617070726f76652063616c6c6572206973206e6f7420746f60448201527f6b656e206f776e6572206f7220617070726f76656420666f7220616c6c000000606482015260840161058c565b61062d8383611e8c565b505050565b610640600780546001019055565b600061064b60075490565b905060006040518061018001604052806101428152602001613a9c61014291399050606061067883611efa565b8760405160200161068a9291906132aa565b6040516020818303038152906040529050806106a586611efa565b6106ae86611efa565b6040516020016106c0939291906132fc565b604051602081830303815290604052905081816040516020016106e492919061334e565b60408051601f1981840301815282820190915260158252740a2d2d2d2d2d205356472064617461202d2d2d2d2d60581b6020830152925061072490611de7565b61072d82611de7565b6107636040518060400160405280601581526020017416969696969696969696969696969696969696968560591b815250611de7565b610799604051806040016040528060158152602001740a2d2d2d2d2d204f424a2064617461202d2d2d2d2d60581b815250611de7565b6107a288611de7565b6107d86040518060400160405280601581526020017416969696969696969696969696969696969696968560591b815250611de7565b6000610810886107e785611f8d565b898c6040516020016107fc9493929190613395565b604051602081830303815290604052611f8d565b90506000816040516020016108259190613474565b60408051601f1981840301815282820190915260158252740a2d2d2d2d2d20546f6b656e20555249202d2d2d2d60581b6020830152915061086590611de7565b61086e81611de7565b6108a46040518060400160405280601581526020017416969696969696969696969696969696969696968560591b815250611de7565b600880546001810182556000919091527ff3f7a9fe364faab93b216da50a3214154f22a0a2b415b23a84c8169e8b636ee3016108e08b82613507565b506108eb33866120e0565b6108f585826120fa565b6000610900866117ca565b905061092e6040518060400160405280600a81526020016903a37b5b2b72aa9249d160b51b8152508261218d565b610951604051806060016040528060258152602001613a776025913987336121d2565b5050505050505050505050565b60606009805480602002602001604051908101604052809291908181526020016000905b82821015610b7a5783829060005260206000209060040201604051806080016040529081600082015481526020016001820154815260200160028201805480602002602001604051908101604052809291908181526020016000905b82821015610a8a5783829060005260206000200180546109fd90613270565b80601f0160208091040260200160405190810160405280929190818152602001828054610a2990613270565b8015610a765780601f10610a4b57610100808354040283529160200191610a76565b820191906000526020600020905b815481529060010190602001808311610a5957829003601f168201915b5050505050815260200190600101906109de565b50505050815260200160038201805480602002602001604051908101604052809291908181526020016000905b82821015610b63578382906000526020600020018054610ad690613270565b80601f0160208091040260200160405190810160405280929190818152602001828054610b0290613270565b8015610b4f5780601f10610b2457610100808354040283529160200191610b4f565b820191906000526020600020905b815481529060010190602001808311610b3257829003601f168201915b505050505081526020019060010190610ab7565b505050508152505081526020019060010190610982565b50505050905090565b6000818152600d6020908152604080832054815160a081018352888152928301879052908201859052600b805460608401819052608084018390529193610bc9836135dd565b9091555050600a8054600181018255600091909152815182916005027fc65a7bb8d6351c1cf70c95a316cc6a92839c986682d98bc35f958f4883f9d2a801908190610c149082613507565b5060208201516001820190610c299082613507565b5060408201516002820190610c3e9082613507565b5060608201518160030155608082015181600401555050505050505050565b604080516080810182528581526020808201869052818301859052606082018490526000878152600d90915291822054909103610daa57600c80546000878152600d60205260408120829055909190610cb5836135dd565b909155505060098054600181018255600091909152815160049091027f6e1540171b6c0c960b71a7020d9f60077f6af931a8bbf590da0223dacf75c7af81019182556020808401517f6e1540171b6c0c960b71a7020d9f60077f6af931a8bbf590da0223dacf75c7b083015560408401518051859493610d5b937f6e1540171b6c0c960b71a7020d9f60077f6af931a8bbf590da0223dacf75c7b19091019201906129ab565b5060608201518051610d779160038401916020909101906129ab565b505050610daa6040518060400160405280600f81526020016e41646420566563746f72204461746160881b815250611de7565b5050505050565b6000806009610dc16001856135f6565b81548110610dd157610dd1613609565b60009182526020909120600490910201546009610def6001866135f6565b81548110610dff57610dff613609565b90600052602060002090600402016001015491509150915091565b610e243382612219565b610e405760405162461bcd60e51b815260040161058c9061361f565b61062d838383612277565b61062d83838360405180602001604052806000815250611792565b6000818152600d6020526040902054606090610ee15760405162461bcd60e51b815260206004820152603460248201527f54686520737065636966696564206e756d626572206f66206469766973696f6e604482015273399034b9903737ba103932b3b4b9ba32b932b21760611b606482015260840161058c565b6000828152600d6020526040812054610efc906001906135f6565b9050600060098281548110610f1357610f13613609565b9060005260206000209060040201600001549050600060098381548110610f3c57610f3c613609565b9060005260206000209060040201600101549050600060098481548110610f6557610f65613609565b9060005260206000209060040201600201805480602002602001604051908101604052809291908181526020016000905b82821015611042578382906000526020600020018054610fb590613270565b80601f0160208091040260200160405190810160405280929190818152602001828054610fe190613270565b801561102e5780601f106110035761010080835404028352916020019161102e565b820191906000526020600020905b81548152906001019060200180831161101157829003601f168201915b505050505081526020019060010190610f96565b50505050905060006009858154811061105d5761105d613609565b9060005260206000209060040201600301805480602002602001604051908101604052809291908181526020016000905b8282101561113a5783829060005260206000200180546110ad90613270565b80601f01602080910402602001604051908101604052809291908181526020018280546110d990613270565b80156111265780601f106110fb57610100808354040283529160200191611126565b820191906000526020600020905b81548152906001019060200180831161110957829003601f168201915b50505050508152602001906001019061108e565b505060408051808201825260018152603b60f91b6020820152905163e86d555560e01b815293945060009373__$f18288e6c6eb8c67252be30bbd085e830a$__935063e86d5555925061119491908890889060040161366c565b600060405180830381865af41580156111b1573d6000803e3d6000fd5b505050506040513d6000823e601f3d908101601f191682016040526111d991908101906136e5565b60408051808201825260028152613b3760f11b6020820152905163e86d555560e01b815291925060009173__$f18288e6c6eb8c67252be30bbd085e830a$__9163e86d55559161123091908990889060040161366c565b600060405180830381865af415801561124d573d6000803e3d6000fd5b505050506040513d6000823e601f3d908101601f1916820160405261127591908101906136e5565b905081604051602001611288919061375c565b60408051601f198184030181529190529150600073__$f18288e6c6eb8c67252be30bbd085e830a$__63bf55f8e8886112c189826137a1565b6040516001600160e01b031960e085901b16815260048101929092526024820152604401600060405180830381865af4158015611302573d6000803e3d6000fd5b505050506040513d6000823e601f3d908101601f1916820160405261132a91908101906136e5565b9050828282604051602001611341939291906137b8565b60408051601f19818403018152828201909152600c82526b664d6573682063726561746560a01b6020830152915061137890611de7565b61138181611f8d565b905080604051602001611394919061388b565b60408051601f198184030181529190529a9950505050505050505050565b60606008805480602002602001604051908101604052809291908181526020016000905b82821015610b7a5783829060005260206000200180546113f590613270565b80601f016020809104026020016040519081016040528092919081815260200182805461142190613270565b801561146e5780601f106114435761010080835404028352916020019161146e565b820191906000526020600020905b81548152906001019060200180831161145157829003601f168201915b5050505050815260200190600101906113d6565b6000818152600260205260408120546001600160a01b0316806104595760405162461bcd60e51b8152602060048201526018602482015277115490cdcc8c4e881a5b9d985b1a59081d1bdad95b88125160421b604482015260640161058c565b60006001600160a01b03821661154c5760405162461bcd60e51b815260206004820152602960248201527f4552433732313a2061646472657373207a65726f206973206e6f7420612076616044820152683634b21037bbb732b960b91b606482015260840161058c565b506001600160a01b031660009081526003602052604090205490565b600a818154811061157857600080fd5b906000526020600020906005020160009150905080600001805461159b90613270565b80601f01602080910402602001604051908101604052809291908181526020018280546115c790613270565b80156116145780601f106115e957610100808354040283529160200191611614565b820191906000526020600020905b8154815290600101906020018083116115f757829003601f168201915b50505050509080600101805461162990613270565b80601f016020809104026020016040519081016040528092919081815260200182805461165590613270565b80156116a25780601f10611677576101008083540402835291602001916116a2565b820191906000526020600020905b81548152906001019060200180831161168557829003601f168201915b5050505050908060020180546116b790613270565b80601f01602080910402602001604051908101604052809291908181526020018280546116e390613270565b80156117305780601f1061170557610100808354040283529160200191611730565b820191906000526020600020905b81548152906001019060200180831161171357829003601f168201915b5050505050908060030154908060040154905085565b6009818154811061175657600080fd5b60009182526020909120600490910201805460019091015490915082565b60606001805461046e90613270565b61178e3383836123e8565b5050565b61179c3383612219565b6117b85760405162461bcd60e51b815260040161058c9061361f565b6117c4848484846124b6565b50505050565b60606117d582611e2d565b600082815260066020526040812080546117ee90613270565b80601f016020809104026020016040519081016040528092919081815260200182805461181a90613270565b80156118675780601f1061183c57610100808354040283529160200191611867565b820191906000526020600020905b81548152906001019060200180831161184a57829003601f168201915b50505050509050600061188560408051602081019091526000815290565b90508051600003611897575092915050565b8151156118c95780826040516020016118b19291906138c9565b60405160208183030381529060405292505050919050565b6118d2846124e9565b949350505050565b6001600160a01b03918216600090815260056020908152604080832093909416825291909152205460ff1690565b606080606080600080600061191c88610e66565b905080600a61192c60018c6135f6565b8154811061193c5761193c613609565b60009182526020909120600590910201600a61195960018d6135f6565b8154811061196957611969613609565b9060005260206000209060050201600101600a60018d61198991906135f6565b8154811061199957611999613609565b9060005260206000209060050201600201600a60018e6119b991906135f6565b815481106119c9576119c9613609565b906000526020600020906005020160030154600a60018f6119ea91906135f6565b815481106119fa576119fa613609565b906000526020600020906005020160040154848054611a1890613270565b80601f0160208091040260200160405190810160405280929190818152602001828054611a4490613270565b8015611a915780601f10611a6657610100808354040283529160200191611a91565b820191906000526020600020905b815481529060010190602001808311611a7457829003601f168201915b50505050509450838054611aa490613270565b80601f0160208091040260200160405190810160405280929190818152602001828054611ad090613270565b8015611b1d5780601f10611af257610100808354040283529160200191611b1d565b820191906000526020600020905b815481529060010190602001808311611b0057829003601f168201915b50505050509350828054611b3090613270565b80601f0160208091040260200160405190810160405280929190818152602001828054611b5c90613270565b8015611ba95780601f10611b7e57610100808354040283529160200191611ba9565b820191906000526020600020905b815481529060010190602001808311611b8c57829003601f168201915b50505050509250965096509650965096509650509295509295509295565b6060600a805480602002602001604051908101604052809291908181526020016000905b82821015610b7a57838290600052602060002090600502016040518060a0016040529081600082018054611c1e90613270565b80601f0160208091040260200160405190810160405280929190818152602001828054611c4a90613270565b8015611c975780601f10611c6c57610100808354040283529160200191611c97565b820191906000526020600020905b815481529060010190602001808311611c7a57829003601f168201915b50505050508152602001600182018054611cb090613270565b80601f0160208091040260200160405190810160405280929190818152602001828054611cdc90613270565b8015611d295780601f10611cfe57610100808354040283529160200191611d29565b820191906000526020600020905b815481529060010190602001808311611d0c57829003601f168201915b50505050508152602001600282018054611d4290613270565b80601f0160208091040260200160405190810160405280929190818152602001828054611d6e90613270565b8015611dbb5780601f10611d9057610100808354040283529160200191611dbb565b820191906000526020600020905b815481529060010190602001808311611d9e57829003601f168201915b505050505081526020016003820154815260200160048201548152505081526020019060010190611beb565b611e2a81604051602401611dfb9190612aeb565b60408051601f198184030181529190526020810180516001600160e01b031663104c13eb60e21b17905261255d565b50565b6000818152600260205260409020546001600160a01b0316611e2a5760405162461bcd60e51b8152602060048201526018602482015277115490cdcc8c4e881a5b9d985b1a59081d1bdad95b88125160421b604482015260640161058c565b600081815260046020526040902080546001600160a01b0319166001600160a01b0384169081179091558190611ec182611482565b6001600160a01b03167f8c5be1e5ebec7d5bd14f71427d1e84f3dd0314c0f7b2291e5b200ac8c7c3b92560405160405180910390a45050565b60606000611f078361257e565b600101905060008167ffffffffffffffff811115611f2757611f27612b5d565b6040519080825280601f01601f191660200182016040528015611f51576020820181803683370190505b5090508181016020015b600019016f181899199a1a9b1b9c1cb0b131b232b360811b600a86061a8153600a8504945084611f5b57509392505050565b60608151600003611fac57505060408051602081019091526000815290565b6000604051806060016040528060408152602001613bde6040913990506000600384516002611fdb91906138f8565b611fe5919061390b565b611ff09060046137a1565b67ffffffffffffffff81111561200857612008612b5d565b6040519080825280601f01601f191660200182016040528015612032576020820181803683370190505b509050600182016020820185865187015b8082101561209e576003820191508151603f8160121c168501518453600184019350603f81600c1c168501518453600184019350603f8160061c168501518453600184019350603f8116850151845350600183019250612043565b50506003865106600181146120ba57600281146120cd576120d5565b603d6001830353603d60028303536120d5565b603d60018303535b509195945050505050565b61178e828260405180602001604052806000815250612656565b6000828152600260205260409020546001600160a01b03166121755760405162461bcd60e51b815260206004820152602e60248201527f45524337323155524953746f726167653a2055524920736574206f66206e6f6e60448201526d32bc34b9ba32b73a103a37b5b2b760911b606482015260840161058c565b600082815260066020526040902061062d8282613507565b61178e82826040516024016121a392919061392d565b60408051601f198184030181529190526020810180516001600160e01b0316634b5c427760e01b17905261255d565b61062d8383836040516024016121ea93929190613952565b60408051601f198184030181529190526020810180516001600160e01b031663038fd88960e31b17905261255d565b60008061222583611482565b9050806001600160a01b0316846001600160a01b0316148061224c575061224c81856118da565b806118d25750836001600160a01b0316612265846104f1565b6001600160a01b031614949350505050565b826001600160a01b031661228a82611482565b6001600160a01b0316146122b05760405162461bcd60e51b815260040161058c90613985565b6001600160a01b0382166123125760405162461bcd60e51b8152602060048201526024808201527f4552433732313a207472616e7366657220746f20746865207a65726f206164646044820152637265737360e01b606482015260840161058c565b61231f8383836001612689565b826001600160a01b031661233282611482565b6001600160a01b0316146123585760405162461bcd60e51b815260040161058c90613985565b600081815260046020908152604080832080546001600160a01b03199081169091556001600160a01b0387811680865260038552838620805460001901905590871680865283862080546001019055868652600290945282852080549092168417909155905184937fddf252ad1be2c89b69c2b068fc378daa952ba7f163c4a11628f55a4df523b3ef91a4505050565b816001600160a01b0316836001600160a01b0316036124495760405162461bcd60e51b815260206004820152601960248201527f4552433732313a20617070726f766520746f2063616c6c657200000000000000604482015260640161058c565b6001600160a01b03838116600081815260056020908152604080832094871680845294825291829020805460ff191686151590811790915591519182527f17307eab39ab6107e8899845ad3d59bd9653f200f220920489ca2b5937696c31910160405180910390a3505050565b6124c1848484612277565b6124cd84848484612711565b6117c45760405162461bcd60e51b815260040161058c906139ca565b60606124f482611e2d565b600061250b60408051602081019091526000815290565b9050600081511161252b5760405180602001604052806000815250612556565b8061253584611efa565b6040516020016125469291906138c9565b6040516020818303038152906040525b9392505050565b80516a636f6e736f6c652e6c6f67602083016000808483855afa5050505050565b60008072184f03e93ff9f4daa797ed6e38ed64bf6a1f0160401b83106125bd5772184f03e93ff9f4daa797ed6e38ed64bf6a1f0160401b830492506040015b6d04ee2d6d415b85acef810000000083106125e9576d04ee2d6d415b85acef8100000000830492506020015b662386f26fc10000831061260757662386f26fc10000830492506010015b6305f5e100831061261f576305f5e100830492506008015b612710831061263357612710830492506004015b60648310612645576064830492506002015b600a83106104595760010192915050565b6126608383612812565b61266d6000848484612711565b61062d5760405162461bcd60e51b815260040161058c906139ca565b60018111156117c4576001600160a01b038416156126cf576001600160a01b038416600090815260036020526040812080548392906126c99084906135f6565b90915550505b6001600160a01b038316156117c4576001600160a01b038316600090815260036020526040812080548392906127069084906138f8565b909155505050505050565b60006001600160a01b0384163b1561280757604051630a85bd0160e11b81526001600160a01b0385169063150b7a0290612755903390899088908890600401613a1c565b6020604051808303816000875af1925050508015612790575060408051601f3d908101601f1916820190925261278d91810190613a59565b60015b6127ed573d8080156127be576040519150601f19603f3d011682016040523d82523d6000602084013e6127c3565b606091505b5080516000036127e55760405162461bcd60e51b815260040161058c906139ca565b805181602001fd5b6001600160e01b031916630a85bd0160e11b1490506118d2565b506001949350505050565b6001600160a01b0382166128685760405162461bcd60e51b815260206004820181905260248201527f4552433732313a206d696e7420746f20746865207a65726f2061646472657373604482015260640161058c565b6000818152600260205260409020546001600160a01b0316156128cd5760405162461bcd60e51b815260206004820152601c60248201527f4552433732313a20746f6b656e20616c7265616479206d696e74656400000000604482015260640161058c565b6128db600083836001612689565b6000818152600260205260409020546001600160a01b0316156129405760405162461bcd60e51b815260206004820152601c60248201527f4552433732313a20746f6b656e20616c7265616479206d696e74656400000000604482015260640161058c565b6001600160a01b038216600081815260036020908152604080832080546001019055848352600290915280822080546001600160a01b0319168417905551839291907fddf252ad1be2c89b69c2b068fc378daa952ba7f163c4a11628f55a4df523b3ef908290a45050565b8280548282559060005260206000209081019282156129f1579160200282015b828111156129f157825182906129e19082613507565b50916020019190600101906129cb565b506129fd929150612a01565b5090565b808211156129fd576000612a158282612a1e565b50600101612a01565b508054612a2a90613270565b6000825580601f10612a3a575050565b601f016020900490600052602060002090810190611e2a91905b808211156129fd5760008155600101612a54565b6001600160e01b031981168114611e2a57600080fd5b600060208284031215612a9057600080fd5b813561255681612a68565b60005b83811015612ab6578181015183820152602001612a9e565b50506000910152565b60008151808452612ad7816020860160208601612a9b565b601f01601f19169290920160200192915050565b6020815260006125566020830184612abf565b600060208284031215612b1057600080fd5b5035919050565b80356001600160a01b0381168114612b2e57600080fd5b919050565b60008060408385031215612b4657600080fd5b612b4f83612b17565b946020939093013593505050565b634e487b7160e01b600052604160045260246000fd5b604051601f8201601f1916810167ffffffffffffffff81118282101715612b9c57612b9c612b5d565b604052919050565b600067ffffffffffffffff821115612bbe57612bbe612b5d565b50601f01601f191660200190565b6000612bdf612bda84612ba4565b612b73565b9050828152838383011115612bf357600080fd5b828260208301376000602084830101529392505050565b600082601f830112612c1b57600080fd5b61255683833560208501612bcc565b600080600080600060a08688031215612c4257600080fd5b853567ffffffffffffffff80821115612c5a57600080fd5b612c6689838a01612c0a565b96506020880135915080821115612c7c57600080fd5b612c8889838a01612c0a565b95506040880135915080821115612c9e57600080fd5b50612cab88828901612c0a565b9598949750949560608101359550608001359392505050565b600082825180855260208086019550808260051b84010181860160005b84811015612d0f57601f19868403018952612cfd838351612abf565b98840198925090830190600101612ce1565b5090979650505050505050565b60006020808301818452808551808352604092508286019150828160051b87010184880160005b83811015612daa57603f1989840301855281516080815185528882015189860152878201518189870152612d7982870182612cc4565b91505060608083015192508582038187015250612d968183612cc4565b968901969450505090860190600101612d43565b509098975050505050505050565b60008060008060808587031215612dce57600080fd5b843567ffffffffffffffff80821115612de657600080fd5b612df288838901612c0a565b95506020870135915080821115612e0857600080fd5b612e1488838901612c0a565b94506040870135915080821115612e2a57600080fd5b50612e3787828801612c0a565b949793965093946060013593505050565b600082601f830112612e5957600080fd5b8135602067ffffffffffffffff80831115612e7657612e76612b5d565b8260051b612e85838201612b73565b9384528581018301938381019088861115612e9f57600080fd5b84880192505b85831015612edb57823584811115612ebd5760008081fd5b612ecb8a87838c0101612c0a565b8352509184019190840190612ea5565b98975050505050505050565b60008060008060808587031215612efd57600080fd5b8435935060208501359250604085013567ffffffffffffffff80821115612f2357600080fd5b612f2f88838901612e48565b93506060870135915080821115612f4557600080fd5b50612f5287828801612e48565b91505092959194509250565b600080600060608486031215612f7357600080fd5b612f7c84612b17565b9250612f8a60208501612b17565b9150604084013590509250925092565b6000602080830181845280855180835260408601915060408160051b870101925083870160005b82811015612fef57603f19888603018452612fdd858351612abf565b94509285019290850190600101612fc1565b5092979650505050505050565b60006020828403121561300e57600080fd5b61255682612b17565b60a08152600061302a60a0830188612abf565b828103602084015261303c8188612abf565b905082810360408401526130508187612abf565b60608401959095525050608001529392505050565b6000806040838503121561307857600080fd5b61308183612b17565b91506020830135801515811461309657600080fd5b809150509250929050565b600080600080608085870312156130b757600080fd5b6130c085612b17565b93506130ce60208601612b17565b925060408501359150606085013567ffffffffffffffff8111156130f157600080fd5b8501601f8101871361310257600080fd5b612f5287823560208401612bcc565b6000806040838503121561312457600080fd5b61312d83612b17565b915061313b60208401612b17565b90509250929050565b6000806040838503121561315757600080fd5b50508035926020909101359150565b60c08152600061317960c0830189612abf565b828103602084015261318b8189612abf565b9050828103604084015261319f8188612abf565b905082810360608401526131b38187612abf565b6080840195909552505060a00152949350505050565b60006020808301818452808551808352604092508286019150828160051b87010184880160005b83811015612daa57603f19898403018552815160a0815181865261321682870182612abf565b915050888201518582038a87015261322e8282612abf565b91505087820151858203898701526132468282612abf565b606084810151908801526080938401519390960192909252505093860193908601906001016131f0565b600181811c9082168061328457607f821691505b6020821081036132a457634e487b7160e01b600052602260045260246000fd5b50919050565b602360f81b8152600083516132c6816001850160208801612a9b565b8083019050600160fd1b80600183015284516132e9816002850160208901612a9b565b6002920191820152600301949350505050565b6000845161330e818460208901612a9b565b845190830190613322818360208901612a9b565b620103c160ed1b91019081528351613341816003840160208801612a9b565b0160030195945050505050565b60008351613360818460208801612a9b565b835190830190613374818360208801612a9b565b6c1e17ba32bc3a1f1e17b9bb339f60991b9101908152600d01949350505050565b693d913730b6b2911d101160b11b815284516000906133bb81600a850160208a01612a9b565b711116101134b6b0b3b2afb230ba30911d101160711b600a9184019182015285516133ed81601c840160208a01612a9b565b72111610113232b9b1b934b83a34b7b7111d101160691b601c9290910191820152845161342181602f840160208901612a9b565b741116101130b734b6b0ba34b7b72fbab936111d101160591b602f92909101918201528351613457816044840160208801612a9b565b61227d60f01b604492909101918201526046019695505050505050565b7f646174613a6170706c69636174696f6e2f6a736f6e3b6261736536342c0000008152600082516134ac81601d850160208701612a9b565b91909101601d0192915050565b601f82111561062d57600081815260208120601f850160051c810160208610156134e05750805b601f850160051c820191505b818110156134ff578281556001016134ec565b505050505050565b815167ffffffffffffffff81111561352157613521612b5d565b6135358161352f8454613270565b846134b9565b602080601f83116001811461356a57600084156135525750858301515b600019600386901b1c1916600185901b1785556134ff565b600085815260208120601f198616915b828110156135995788860151825594840194600190910190840161357a565b50858210156135b75787850151600019600388901b60f8161c191681555b5050505050600190811b01905550565b634e487b7160e01b600052601160045260246000fd5b6000600182016135ef576135ef6135c7565b5060010190565b81810381811115610459576104596135c7565b634e487b7160e01b600052603260045260246000fd5b6020808252602d908201527f4552433732313a2063616c6c6572206973206e6f7420746f6b656e206f776e6560408201526c1c881bdc88185c1c1c9bdd9959609a1b606082015260800190565b60608152600061367f6060830186612abf565b6020858185015283820360408501528185518084528284019150828160051b85010183880160005b838110156136d557601f198784030185526136c3838351612abf565b948601949250908501906001016136a7565b50909a9950505050505050505050565b6000602082840312156136f757600080fd5b815167ffffffffffffffff81111561370e57600080fd5b8201601f8101841361371f57600080fd5b805161372d612bda82612ba4565b81815285602083850101111561374257600080fd5b613753826020830160208601612a9b565b95945050505050565b683b101698101890180560b91b81528151600090613781816009850160208701612a9b565b683b101810169890180560b91b6009939091019283015250601201919050565b8082028115828204841417610459576104596135c7565b7f2320426c656e6465722076332e322e32204f424a2046696c653a2027270a232081527f7777772e626c656e6465722e6f72670a6d746c6c6962207370686572655f31326020820152742f9b1736ba3605379073c841aff3c841971818188560591b604082015260008451613834816055850160208901612a9b565b84519083019061384b816055840160208901612a9b565b713ab9b2b6ba36102737b73285399037b3330560711b60559290910191820152835161387e816067840160208801612a9b565b0160670195945050505050565b7519185d184e9b5bd9195b0bdbd89a8ed8985cd94d8d0b60521b8152600082516138bc816016850160208701612a9b565b9190910160160192915050565b600083516138db818460208801612a9b565b8351908301906138ef818360208801612a9b565b01949350505050565b80820180821115610459576104596135c7565b60008261392857634e487b7160e01b600052601260045260246000fd5b500490565b6040815260006139406040830185612abf565b82810360208401526137538185612abf565b6060815260006139656060830186612abf565b6020830194909452506001600160a01b0391909116604090910152919050565b60208082526025908201527f4552433732313a207472616e736665722066726f6d20696e636f72726563742060408201526437bbb732b960d91b606082015260800190565b60208082526032908201527f4552433732313a207472616e7366657220746f206e6f6e20455243373231526560408201527131b2b4bb32b91034b6b83632b6b2b73a32b960711b606082015260800190565b6001600160a01b0385811682528416602082015260408101839052608060608201819052600090613a4f90830184612abf565b9695505050505050565b600060208284031215613a6b57600080fd5b815161255681612a6856fe416e204e465420772f20494420257320686173206265656e206d696e74656420746f2025733c73766720786d6c6e733d27687474703a2f2f7777772e77332e6f72672f323030302f73766727207072657365727665417370656374526174696f3d27784d696e594d696e206d656574272076696577426f783d273020302033353020333530273e3c7374796c653e2e62617365207b2066696c6c3a20234638463546353b20666f6e742d66616d696c793a202747656f726769612c207365726966273b20666f6e742d73697a653a20323470783b207d3c2f7374796c653e3c726563742077696474683d273130302527206865696768743d2731303025272066696c6c3d272333464330413127202f3e3c7465787420783d273530252720793d273530252720636c6173734e616d653d27626173652720646f6d696e616e742d626173656c696e653d276d6964646c652720746578742d616e63686f723d276d6964646c65273e4142434445464748494a4b4c4d4e4f505152535455565758595a6162636465666768696a6b6c6d6e6f707172737475767778797a303132333435363738392b2fa26469706673582212209dbc5ffb9fc375b92963600995141d2c984a730597a2b544c7190c77d1b6b82764736f6c63430008110033",
  "linkReferences": {
    "contracts/library/Vector.sol": {
      "Vector": [
        {
          "length": 20,
          "start": 5225
        },
        {
          "length": 20,
          "start": 5383
        },
        {
          "length": 20,
          "start": 5536
        }
      ]
    }
  },
  "deployedLinkReferences": {
    "contracts/library/Vector.sol": {
      "Vector": [
        {
          "length": 20,
          "start": 4455
        },
        {
          "length": 20,
          "start": 4613
        },
        {
          "length": 20,
          "start": 4766
        }
      ]
    }
  }
}